{
  "contractName": "HybridAuction",
  "abi": [
    {
      "inputs": [
        {
          "internalType": "address payable",
          "name": "_owner",
          "type": "address"
        },
        {
          "internalType": "uint256",
          "name": "_dbid",
          "type": "uint256"
        }
      ],
      "payable": false,
      "stateMutability": "nonpayable",
      "type": "constructor"
    },
    {
      "constant": true,
      "inputs": [],
      "name": "a",
      "outputs": [
        {
          "internalType": "address payable",
          "name": "owner",
          "type": "address"
        },
        {
          "internalType": "address payable",
          "name": "theBidWinner",
          "type": "address"
        },
        {
          "internalType": "uint256",
          "name": "DBID",
          "type": "uint256"
        },
        {
          "internalType": "uint256",
          "name": "theWinningBid",
          "type": "uint256"
        }
      ],
      "payable": false,
      "stateMutability": "view",
      "type": "function"
    },
    {
      "constant": true,
      "inputs": [
        {
          "internalType": "address",
          "name": "",
          "type": "address"
        }
      ],
      "name": "deposit",
      "outputs": [
        {
          "internalType": "uint256",
          "name": "",
          "type": "uint256"
        }
      ],
      "payable": false,
      "stateMutability": "view",
      "type": "function"
    },
    {
      "constant": false,
      "inputs": [],
      "name": "receiveDeposit",
      "outputs": [],
      "payable": true,
      "stateMutability": "payable",
      "type": "function"
    },
    {
      "constant": false,
      "inputs": [],
      "name": "successfulBid",
      "outputs": [],
      "payable": true,
      "stateMutability": "payable",
      "type": "function"
    },
    {
      "constant": false,
      "inputs": [],
      "name": "refundDeposit",
      "outputs": [],
      "payable": true,
      "stateMutability": "payable",
      "type": "function"
    }
  ],
  "bytecode": "0x608060405234801561001057600080fd5b5060405161054a38038061054a8339818101604052604081101561003357600080fd5b810190808051906020019092919080519060200190929190505050816000800160006101000a81548173ffffffffffffffffffffffffffffffffffffffff021916908373ffffffffffffffffffffffffffffffffffffffff16021790555080600060020181905550505061049e806100ac6000396000f3fe60806040526004361061004a5760003560e01c80630dbe671f1461004f57806347f8680a146100e7578063e367ef5e146100f1578063efc5eb8f146100fb578063f340fa0114610105575b600080fd5b34801561005b57600080fd5b5061006461016a565b604051808573ffffffffffffffffffffffffffffffffffffffff1673ffffffffffffffffffffffffffffffffffffffff1681526020018473ffffffffffffffffffffffffffffffffffffffff1673ffffffffffffffffffffffffffffffffffffffff16815260200183815260200182815260200194505050505060405180910390f35b6100ef6101c8565b005b6100f9610283565b005b6101036102c9565b005b34801561011157600080fd5b506101546004803603602081101561012857600080fd5b81019080803573ffffffffffffffffffffffffffffffffffffffff169060200190929190505050610451565b6040518082815260200191505060405180910390f35b60008060000160009054906101000a900473ffffffffffffffffffffffffffffffffffffffff16908060010160009054906101000a900473ffffffffffffffffffffffffffffffffffffffff16908060020154908060030154905084565b33600060010160006101000a81548173ffffffffffffffffffffffffffffffffffffffff021916908373ffffffffffffffffffffffffffffffffffffffff160217905550346000600301819055506000800160009054906101000a900473ffffffffffffffffffffffffffffffffffffffff1673ffffffffffffffffffffffffffffffffffffffff166108fc349081150290604051600060405180830381858888f19350505050158015610280573d6000803e3d6000fd5b50565b34600460003373ffffffffffffffffffffffffffffffffffffffff1673ffffffffffffffffffffffffffffffffffffffff16815260200190815260200160002081905550565b6000600460003373ffffffffffffffffffffffffffffffffffffffff1673ffffffffffffffffffffffffffffffffffffffff168152602001908152602001600020541161037e576040517f08c379a000000000000000000000000000000000000000000000000000000000815260040180806020018281038252601d8152602001807f596f7527766520616c726561647920726563656976656420457468657200000081525060200191505060405180910390fd5b6000600460003373ffffffffffffffffffffffffffffffffffffffff1673ffffffffffffffffffffffffffffffffffffffff1681526020019081526020016000205490506000600460003373ffffffffffffffffffffffffffffffffffffffff1673ffffffffffffffffffffffffffffffffffffffff168152602001908152602001600020819055503373ffffffffffffffffffffffffffffffffffffffff166108fc829081150290604051600060405180830381858888f1935050505015801561044d573d6000803e3d6000fd5b5050565b6004602052806000526040600020600091509050548156fea265627a7a723158203462f6df9ebb9cb4938882c904f907b9f79e5d80970c35c624e5d8fe4b073abd64736f6c63430005100032",
  "source": "pragma solidity ^0.5.16;\r\n\r\ncontract HybridBox{\r\n    event AuctionCreated(HybridAuction auctionContract, uint dbid);\r\n \r\n    //auction contract 호출 함수\r\n    //AuctionCreated 이벤트 호출, 생성된 auction 주소, dbid 기록\r\n    function createAuction(uint _dbid) public{\r\n        HybridAuction newAuction = new HybridAuction(msg.sender,_dbid);\r\n        emit AuctionCreated(newAuction,_dbid);\r\n    }\r\n}\r\n\r\ncontract HybridAuction{\r\n\r\n    struct auction{\r\n        address payable owner;              //경매 개최자(판매자),\r\n        address payable theBidWinner;       //낙찰자\r\n        uint DBID;                          //디비 아이디\r\n        uint theWinningBid;                 //최종 낙찰가\r\n    }\r\n\r\n    auction public a;                             \r\n    mapping(address=>uint) public deposit;        //보증금 매핑\r\n\r\n\r\n    //생성자, AuctionBox.createAuction()를 통해 호출됨,auction 구조체의 owner 및 DBID 저장\r\n    constructor(address payable _owner,uint _dbid)public{\r\n        a.owner = _owner;\r\n        a.DBID = _dbid;\r\n    }\r\n\r\n    //보증금 함수, sender 정보를 value 정보와 매핑(deposit)\r\n    function receiveDeposit() public payable {\r\n        deposit [msg.sender] = msg.value;\r\n    }\r\n\r\n    //낙찰 함수, auction 구조체에의 남은 부분(theBidWinner,theWinningBid)를 저장 및 owner에게 최종낙찰가 전송\r\n    //successfulBidTransfered 이벤트 호출, 해당 auction의 주소, 누가(from) 누구에게(to) 얼마(amount)를 전송하였는지 기록\r\n    function successfulBid()public payable{\r\n        a.theBidWinner = msg.sender;\r\n        a.theWinningBid = msg.value;\r\n        a.owner.transfer(msg.value);\r\n    }\r\n\r\n    //보증금 환불 함수, msg.sender에게 보증금 환불 (transfer 후, deposit[msg.sender]=0으로 변경)\r\n    //refundedDespoit 이벤트 호출, 해당 auction의 주소, 얼마(amount)를 전송하였는지 기록\r\n    function refundDeposit() public payable{\r\n        require(deposit[msg.sender]>0,\"You've already received Ether\");\r\n        uint value = deposit[msg.sender];\r\n        deposit[msg.sender]=0;\r\n        msg.sender.transfer(value);\r\n        \r\n    }\r\n}",
  "sourcePath": "C:\\Users\\User\\Desktop\\Blockchain\\System\\back\\contracts\\Hybrid.sol",
  "compiler": {
    "name": "solc",
    "version": "0.5.16+commit.9c3226ce.Emscripten.clang"
  },
  "schemaVersion": "3.4.3",
  "updatedAt": "2022-03-06T13:57:20.638Z",
  "devdoc": {
    "methods": {}
  },
  "userdoc": {
    "methods": {}
  }
}